{
  "_format": "hh-sol-artifact-1",
  "contractName": "ProofOfScanV2",
  "sourceName": "contracts/ProofOfScan_v2.sol",
  "abi": [
    {
      "anonymous": false,
      "inputs": [
        {
          "indexed": true,
          "internalType": "address",
          "name": "scanner",
          "type": "address"
        },
        {
          "indexed": false,
          "internalType": "string",
          "name": "uniqueId",
          "type": "string"
        },
        {
          "indexed": false,
          "internalType": "string",
          "name": "ipfsCid",
          "type": "string"
        },
        {
          "indexed": false,
          "internalType": "uint256",
          "name": "timestamp",
          "type": "uint256"
        }
      ],
      "name": "ScanRecorded",
      "type": "event"
    },
    {
      "inputs": [
        {
          "internalType": "string",
          "name": "_uniqueId",
          "type": "string"
        }
      ],
      "name": "getScanDetails",
      "outputs": [
        {
          "internalType": "address",
          "name": "scanner",
          "type": "address"
        },
        {
          "internalType": "uint256",
          "name": "timestamp",
          "type": "uint256"
        },
        {
          "internalType": "string",
          "name": "ipfsCid",
          "type": "string"
        }
      ],
      "stateMutability": "view",
      "type": "function"
    },
    {
      "inputs": [
        {
          "internalType": "string",
          "name": "",
          "type": "string"
        }
      ],
      "name": "latestScan",
      "outputs": [
        {
          "internalType": "address",
          "name": "scanner",
          "type": "address"
        },
        {
          "internalType": "uint256",
          "name": "timestamp",
          "type": "uint256"
        },
        {
          "internalType": "string",
          "name": "ipfsCid",
          "type": "string"
        }
      ],
      "stateMutability": "view",
      "type": "function"
    },
    {
      "inputs": [
        {
          "internalType": "string",
          "name": "_uniqueId",
          "type": "string"
        },
        {
          "internalType": "string",
          "name": "_ipfsCid",
          "type": "string"
        }
      ],
      "name": "recordScan",
      "outputs": [],
      "stateMutability": "nonpayable",
      "type": "function"
    }
  ],
  "bytecode": "0x608060405234801561001057600080fd5b50610ada806100206000396000f3fe608060405234801561001057600080fd5b50600436106100405760003560e01c806288894214610045578063a8cb834814610077578063b2bba65814610093575b600080fd5b61005f600480360381019061005a9190610556565b6100c5565b60405161006e93929190610678565b60405180910390f35b610091600480360381019061008c91906106b6565b610205565b005b6100ad60048036038101906100a89190610556565b610314565b6040516100bc93929190610678565b60405180910390f35b6000806060600080856040516100db919061076a565b90815260200160405180910390206040518060600160405290816000820160009054906101000a900473ffffffffffffffffffffffffffffffffffffffff1673ffffffffffffffffffffffffffffffffffffffff1673ffffffffffffffffffffffffffffffffffffffff16815260200160018201548152602001600282018054610164906107b0565b80601f0160208091040260200160405190810160405280929190818152602001828054610190906107b0565b80156101dd5780601f106101b2576101008083540402835291602001916101dd565b820191906000526020600020905b8154815290600101906020018083116101c057829003601f168201915b5050505050815250509050806000015181602001518260400151935093509350509193909250565b60405180606001604052803373ffffffffffffffffffffffffffffffffffffffff16815260200142815260200182815250600083604051610246919061076a565b908152602001604051809103902060008201518160000160006101000a81548173ffffffffffffffffffffffffffffffffffffffff021916908373ffffffffffffffffffffffffffffffffffffffff1602179055506020820151816001015560408201518160020190816102ba919061098d565b509050503373ffffffffffffffffffffffffffffffffffffffff167f508a0431c940825fc3db65c4cca8a8fee71dfbb3e88bddb23655a0ea8b74905e83834260405161030893929190610a5f565b60405180910390a25050565b6000818051602081018201805184825260208301602085012081835280955050505050506000915090508060000160009054906101000a900473ffffffffffffffffffffffffffffffffffffffff1690806001015490806002018054610379906107b0565b80601f01602080910402602001604051908101604052809291908181526020018280546103a5906107b0565b80156103f25780601f106103c7576101008083540402835291602001916103f2565b820191906000526020600020905b8154815290600101906020018083116103d557829003601f168201915b5050505050905083565b6000604051905090565b600080fd5b600080fd5b600080fd5b600080fd5b6000601f19601f8301169050919050565b7f4e487b7100000000000000000000000000000000000000000000000000000000600052604160045260246000fd5b6104638261041a565b810181811067ffffffffffffffff821117156104825761048161042b565b5b80604052505050565b60006104956103fc565b90506104a1828261045a565b919050565b600067ffffffffffffffff8211156104c1576104c061042b565b5b6104ca8261041a565b9050602081019050919050565b82818337600083830152505050565b60006104f96104f4846104a6565b61048b565b90508281526020810184848401111561051557610514610415565b5b6105208482856104d7565b509392505050565b600082601f83011261053d5761053c610410565b5b813561054d8482602086016104e6565b91505092915050565b60006020828403121561056c5761056b610406565b5b600082013567ffffffffffffffff81111561058a5761058961040b565b5b61059684828501610528565b91505092915050565b600073ffffffffffffffffffffffffffffffffffffffff82169050919050565b60006105ca8261059f565b9050919050565b6105da816105bf565b82525050565b6000819050919050565b6105f3816105e0565b82525050565b600081519050919050565b600082825260208201905092915050565b60005b83811015610633578082015181840152602081019050610618565b60008484015250505050565b600061064a826105f9565b6106548185610604565b9350610664818560208601610615565b61066d8161041a565b840191505092915050565b600060608201905061068d60008301866105d1565b61069a60208301856105ea565b81810360408301526106ac818461063f565b9050949350505050565b600080604083850312156106cd576106cc610406565b5b600083013567ffffffffffffffff8111156106eb576106ea61040b565b5b6106f785828601610528565b925050602083013567ffffffffffffffff8111156107185761071761040b565b5b61072485828601610528565b9150509250929050565b600081905092915050565b6000610744826105f9565b61074e818561072e565b935061075e818560208601610615565b80840191505092915050565b60006107768284610739565b915081905092915050565b7f4e487b7100000000000000000000000000000000000000000000000000000000600052602260045260246000fd5b600060028204905060018216806107c857607f821691505b6020821081036107db576107da610781565b5b50919050565b60008190508160005260206000209050919050565b60006020601f8301049050919050565b600082821b905092915050565b6000600883026108437fffffffffffffffffffffffffffffffffffffffffffffffffffffffffffffffff82610806565b61084d8683610806565b95508019841693508086168417925050509392505050565b6000819050919050565b600061088a610885610880846105e0565b610865565b6105e0565b9050919050565b6000819050919050565b6108a48361086f565b6108b86108b082610891565b848454610813565b825550505050565b600090565b6108cd6108c0565b6108d881848461089b565b505050565b5b818110156108fc576108f16000826108c5565b6001810190506108de565b5050565b601f82111561094157610912816107e1565b61091b846107f6565b8101602085101561092a578190505b61093e610936856107f6565b8301826108dd565b50505b505050565b600082821c905092915050565b600061096460001984600802610946565b1980831691505092915050565b600061097d8383610953565b9150826002028217905092915050565b610996826105f9565b67ffffffffffffffff8111156109af576109ae61042b565b5b6109b982546107b0565b6109c4828285610900565b600060209050601f8311600181146109f757600084156109e5578287015190505b6109ef8582610971565b865550610a57565b601f198416610a05866107e1565b60005b82811015610a2d57848901518255600182019150602085019450602081019050610a08565b86831015610a4a5784890151610a46601f891682610953565b8355505b6001600288020188555050505b505050505050565b60006060820190508181036000830152610a79818661063f565b90508181036020830152610a8d818561063f565b9050610a9c60408301846105ea565b94935050505056fea264697066735822122089ea15e17185006934b98fd57fabaf72c9c2dd1cc5686d754fdb92acfc41d61264736f6c63430008140033",
  "linkReferences": {},
  "deployedLinkReferences": {}
}