{
  "_format": "hh-sol-artifact-1",
  "contractName": "YYSSQRCards",
  "sourceName": "contracts/YYSSQRCards.sol",
  "abi": [
    {
      "inputs": [],
      "stateMutability": "nonpayable",
      "type": "constructor"
    },
    {
      "anonymous": false,
      "inputs": [
        {
          "indexed": true,
          "internalType": "address",
          "name": "owner",
          "type": "address"
        },
        {
          "indexed": true,
          "internalType": "address",
          "name": "approved",
          "type": "address"
        },
        {
          "indexed": true,
          "internalType": "uint256",
          "name": "tokenId",
          "type": "uint256"
        }
      ],
      "name": "Approval",
      "type": "event"
    },
    {
      "anonymous": false,
      "inputs": [
        {
          "indexed": true,
          "internalType": "address",
          "name": "owner",
          "type": "address"
        },
        {
          "indexed": true,
          "internalType": "address",
          "name": "operator",
          "type": "address"
        },
        {
          "indexed": false,
          "internalType": "bool",
          "name": "approved",
          "type": "bool"
        }
      ],
      "name": "ApprovalForAll",
      "type": "event"
    },
    {
      "anonymous": false,
      "inputs": [
        {
          "indexed": true,
          "internalType": "address",
          "name": "to",
          "type": "address"
        },
        {
          "indexed": true,
          "internalType": "uint256",
          "name": "tokenId",
          "type": "uint256"
        },
        {
          "indexed": false,
          "internalType": "string",
          "name": "watermarkId",
          "type": "string"
        },
        {
          "indexed": false,
          "internalType": "string",
          "name": "metadataURI",
          "type": "string"
        }
      ],
      "name": "CardMinted",
      "type": "event"
    },
    {
      "anonymous": false,
      "inputs": [
        {
          "indexed": true,
          "internalType": "address",
          "name": "previousOwner",
          "type": "address"
        },
        {
          "indexed": true,
          "internalType": "address",
          "name": "newOwner",
          "type": "address"
        }
      ],
      "name": "OwnershipTransferred",
      "type": "event"
    },
    {
      "anonymous": false,
      "inputs": [
        {
          "indexed": true,
          "internalType": "address",
          "name": "from",
          "type": "address"
        },
        {
          "indexed": true,
          "internalType": "address",
          "name": "to",
          "type": "address"
        },
        {
          "indexed": true,
          "internalType": "uint256",
          "name": "tokenId",
          "type": "uint256"
        }
      ],
      "name": "Transfer",
      "type": "event"
    },
    {
      "inputs": [
        {
          "internalType": "address",
          "name": "to",
          "type": "address"
        },
        {
          "internalType": "uint256",
          "name": "tokenId",
          "type": "uint256"
        }
      ],
      "name": "approve",
      "outputs": [],
      "stateMutability": "nonpayable",
      "type": "function"
    },
    {
      "inputs": [
        {
          "internalType": "address",
          "name": "owner",
          "type": "address"
        }
      ],
      "name": "balanceOf",
      "outputs": [
        {
          "internalType": "uint256",
          "name": "",
          "type": "uint256"
        }
      ],
      "stateMutability": "view",
      "type": "function"
    },
    {
      "inputs": [
        {
          "internalType": "uint256",
          "name": "tokenId",
          "type": "uint256"
        }
      ],
      "name": "getApproved",
      "outputs": [
        {
          "internalType": "address",
          "name": "",
          "type": "address"
        }
      ],
      "stateMutability": "view",
      "type": "function"
    },
    {
      "inputs": [
        {
          "internalType": "string",
          "name": "watermarkId",
          "type": "string"
        }
      ],
      "name": "getTokenId",
      "outputs": [
        {
          "internalType": "uint256",
          "name": "",
          "type": "uint256"
        }
      ],
      "stateMutability": "view",
      "type": "function"
    },
    {
      "inputs": [
        {
          "internalType": "uint256",
          "name": "tokenId",
          "type": "uint256"
        }
      ],
      "name": "getWatermarkId",
      "outputs": [
        {
          "internalType": "string",
          "name": "",
          "type": "string"
        }
      ],
      "stateMutability": "view",
      "type": "function"
    },
    {
      "inputs": [
        {
          "internalType": "address",
          "name": "owner",
          "type": "address"
        },
        {
          "internalType": "address",
          "name": "operator",
          "type": "address"
        }
      ],
      "name": "isApprovedForAll",
      "outputs": [
        {
          "internalType": "bool",
          "name": "",
          "type": "bool"
        }
      ],
      "stateMutability": "view",
      "type": "function"
    },
    {
      "inputs": [
        {
          "internalType": "string",
          "name": "watermarkId",
          "type": "string"
        }
      ],
      "name": "isCardMinted",
      "outputs": [
        {
          "internalType": "bool",
          "name": "",
          "type": "bool"
        }
      ],
      "stateMutability": "view",
      "type": "function"
    },
    {
      "inputs": [
        {
          "internalType": "address",
          "name": "to",
          "type": "address"
        },
        {
          "internalType": "string",
          "name": "watermarkId",
          "type": "string"
        },
        {
          "internalType": "string",
          "name": "metadataURI",
          "type": "string"
        }
      ],
      "name": "mintCard",
      "outputs": [
        {
          "internalType": "uint256",
          "name": "",
          "type": "uint256"
        }
      ],
      "stateMutability": "nonpayable",
      "type": "function"
    },
    {
      "inputs": [],
      "name": "name",
      "outputs": [
        {
          "internalType": "string",
          "name": "",
          "type": "string"
        }
      ],
      "stateMutability": "view",
      "type": "function"
    },
    {
      "inputs": [],
      "name": "owner",
      "outputs": [
        {
          "internalType": "address",
          "name": "",
          "type": "address"
        }
      ],
      "stateMutability": "view",
      "type": "function"
    },
    {
      "inputs": [
        {
          "internalType": "uint256",
          "name": "tokenId",
          "type": "uint256"
        }
      ],
      "name": "ownerOf",
      "outputs": [
        {
          "internalType": "address",
          "name": "",
          "type": "address"
        }
      ],
      "stateMutability": "view",
      "type": "function"
    },
    {
      "inputs": [],
      "name": "renounceOwnership",
      "outputs": [],
      "stateMutability": "nonpayable",
      "type": "function"
    },
    {
      "inputs": [
        {
          "internalType": "address",
          "name": "from",
          "type": "address"
        },
        {
          "internalType": "address",
          "name": "to",
          "type": "address"
        },
        {
          "internalType": "uint256",
          "name": "tokenId",
          "type": "uint256"
        }
      ],
      "name": "safeTransferFrom",
      "outputs": [],
      "stateMutability": "nonpayable",
      "type": "function"
    },
    {
      "inputs": [
        {
          "internalType": "address",
          "name": "from",
          "type": "address"
        },
        {
          "internalType": "address",
          "name": "to",
          "type": "address"
        },
        {
          "internalType": "uint256",
          "name": "tokenId",
          "type": "uint256"
        },
        {
          "internalType": "bytes",
          "name": "data",
          "type": "bytes"
        }
      ],
      "name": "safeTransferFrom",
      "outputs": [],
      "stateMutability": "nonpayable",
      "type": "function"
    },
    {
      "inputs": [
        {
          "internalType": "address",
          "name": "operator",
          "type": "address"
        },
        {
          "internalType": "bool",
          "name": "approved",
          "type": "bool"
        }
      ],
      "name": "setApprovalForAll",
      "outputs": [],
      "stateMutability": "nonpayable",
      "type": "function"
    },
    {
      "inputs": [
        {
          "internalType": "bytes4",
          "name": "interfaceId",
          "type": "bytes4"
        }
      ],
      "name": "supportsInterface",
      "outputs": [
        {
          "internalType": "bool",
          "name": "",
          "type": "bool"
        }
      ],
      "stateMutability": "view",
      "type": "function"
    },
    {
      "inputs": [],
      "name": "symbol",
      "outputs": [
        {
          "internalType": "string",
          "name": "",
          "type": "string"
        }
      ],
      "stateMutability": "view",
      "type": "function"
    },
    {
      "inputs": [
        {
          "internalType": "uint256",
          "name": "",
          "type": "uint256"
        }
      ],
      "name": "tokenToWatermark",
      "outputs": [
        {
          "internalType": "string",
          "name": "",
          "type": "string"
        }
      ],
      "stateMutability": "view",
      "type": "function"
    },
    {
      "inputs": [
        {
          "internalType": "uint256",
          "name": "tokenId",
          "type": "uint256"
        }
      ],
      "name": "tokenURI",
      "outputs": [
        {
          "internalType": "string",
          "name": "",
          "type": "string"
        }
      ],
      "stateMutability": "view",
      "type": "function"
    },
    {
      "inputs": [
        {
          "internalType": "uint256",
          "name": "",
          "type": "uint256"
        }
      ],
      "name": "tokenURIs",
      "outputs": [
        {
          "internalType": "string",
          "name": "",
          "type": "string"
        }
      ],
      "stateMutability": "view",
      "type": "function"
    },
    {
      "inputs": [],
      "name": "totalSupply",
      "outputs": [
        {
          "internalType": "uint256",
          "name": "",
          "type": "uint256"
        }
      ],
      "stateMutability": "view",
      "type": "function"
    },
    {
      "inputs": [
        {
          "internalType": "address",
          "name": "from",
          "type": "address"
        },
        {
          "internalType": "address",
          "name": "to",
          "type": "address"
        },
        {
          "internalType": "uint256",
          "name": "tokenId",
          "type": "uint256"
        }
      ],
      "name": "transferFrom",
      "outputs": [],
      "stateMutability": "nonpayable",
      "type": "function"
    },
    {
      "inputs": [
        {
          "internalType": "address",
          "name": "newOwner",
          "type": "address"
        }
      ],
      "name": "transferOwnership",
      "outputs": [],
      "stateMutability": "nonpayable",
      "type": "function"
    },
    {
      "inputs": [
        {
          "internalType": "string",
          "name": "",
          "type": "string"
        }
      ],
      "name": "watermarkToToken",
      "outputs": [
        {
          "internalType": "uint256",
          "name": "",
          "type": "uint256"
        }
      ],
      "stateMutability": "view",
      "type": "function"
    }
  ],
  "bytecode": "0x60806040523480156200001157600080fd5b506040518060400160405280601581526020017f5959532d5351522054726164696e6720436172647300000000000000000000008152506040518060400160405280600681526020017f595953535152000000000000000000000000000000000000000000000000000081525081600090816200008f919062000412565b508060019081620000a1919062000412565b505050620000c4620000b8620000ca60201b60201c565b620000d260201b60201c565b620004f9565b600033905090565b6000600660009054906101000a900473ffffffffffffffffffffffffffffffffffffffff16905081600660006101000a81548173ffffffffffffffffffffffffffffffffffffffff021916908373ffffffffffffffffffffffffffffffffffffffff1602179055508173ffffffffffffffffffffffffffffffffffffffff168173ffffffffffffffffffffffffffffffffffffffff167f8be0079c531659141344cd1fd0a4f28419497f9722a3daafe3b4186f6b6457e060405160405180910390a35050565b600081519050919050565b7f4e487b7100000000000000000000000000000000000000000000000000000000600052604160045260246000fd5b7f4e487b7100000000000000000000000000000000000000000000000000000000600052602260045260246000fd5b600060028204905060018216806200021a57607f821691505b60208210810362000230576200022f620001d2565b5b50919050565b60008190508160005260206000209050919050565b60006020601f8301049050919050565b600082821b905092915050565b6000600883026200029a7fffffffffffffffffffffffffffffffffffffffffffffffffffffffffffffffff826200025b565b620002a686836200025b565b95508019841693508086168417925050509392505050565b6000819050919050565b6000819050919050565b6000620002f3620002ed620002e784620002be565b620002c8565b620002be565b9050919050565b6000819050919050565b6200030f83620002d2565b620003276200031e82620002fa565b84845462000268565b825550505050565b600090565b6200033e6200032f565b6200034b81848462000304565b505050565b5b8181101562000373576200036760008262000334565b60018101905062000351565b5050565b601f821115620003c2576200038c8162000236565b62000397846200024b565b81016020851015620003a7578190505b620003bf620003b6856200024b565b83018262000350565b50505b505050565b600082821c905092915050565b6000620003e760001984600802620003c7565b1980831691505092915050565b6000620004028383620003d4565b9150826002028217905092915050565b6200041d8262000198565b67ffffffffffffffff811115620004395762000438620001a3565b5b62000445825462000201565b6200045282828562000377565b600060209050601f8311600181146200048a576000841562000475578287015190505b620004818582620003f4565b865550620004f1565b601f1984166200049a8662000236565b60005b82811015620004c4578489015182556001820191506020850194506020810190506200049d565b86831015620004e45784890151620004e0601f891682620003d4565b8355505b6001600288020188555050505b505050505050565b6130c780620005096000396000f3fe608060405234801561001057600080fd5b50600436106101575760003560e01c8063715018a6116100c3578063c87b56dd1161007c578063c87b56dd146103ea578063cb4b9e961461041a578063d0684a9b1461044a578063d2b5dab81461047a578063e985e9c5146104aa578063f2fde38b146104da57610157565b8063715018a61461033c5780638da5cb5b146103465780639310498f1461036457806395d89b4114610394578063a22cb465146103b2578063b88d4fde146103ce57610157565b80631e7663bc116101155780631e7663bc1461024457806323b872dd1461027457806342842e0e146102905780636352211e146102ac5780636c8b703f146102dc57806370a082311461030c57610157565b8062564d331461015c57806301ffc9a71461018c57806306fdde03146101bc578063081812fc146101da578063095ea7b31461020a57806318160ddd14610226575b600080fd5b61017660048036038101906101719190611eed565b6104f6565b6040516101839190611f4f565b60405180910390f35b6101a660048036038101906101a19190611fc2565b610524565b6040516101b3919061200a565b60405180910390f35b6101c4610606565b6040516101d191906120a4565b60405180910390f35b6101f460048036038101906101ef91906120f2565b610698565b6040516102019190612160565b60405180910390f35b610224600480360381019061021f91906121a7565b6106de565b005b61022e6107f5565b60405161023b9190611f4f565b60405180910390f35b61025e60048036038101906102599190611eed565b610806565b60405161026b9190611f4f565b60405180910390f35b61028e600480360381019061028991906121e7565b61082e565b005b6102aa60048036038101906102a591906121e7565b61088e565b005b6102c660048036038101906102c191906120f2565b6108ae565b6040516102d39190612160565b60405180910390f35b6102f660048036038101906102f191906120f2565b610934565b60405161030391906120a4565b60405180910390f35b6103266004803603810190610321919061223a565b6109d4565b6040516103339190611f4f565b60405180910390f35b610344610a8b565b005b61034e610a9f565b60405161035b9190612160565b60405180910390f35b61037e600480360381019061037991906120f2565b610ac9565b60405161038b91906120a4565b60405180910390f35b61039c610b69565b6040516103a991906120a4565b60405180910390f35b6103cc60048036038101906103c79190612293565b610bfb565b005b6103e860048036038101906103e39190612374565b610c11565b005b61040460048036038101906103ff91906120f2565b610c73565b60405161041191906120a4565b60405180910390f35b610434600480360381019061042f91906120f2565b610d60565b60405161044191906120a4565b60405180910390f35b610464600480360381019061045f9190611eed565b610e05565b604051610471919061200a565b60405180910390f35b610494600480360381019061048f91906123f7565b610e30565b6040516104a19190611f4f565b60405180910390f35b6104c460048036038101906104bf9190612482565b610f7e565b6040516104d1919061200a565b60405180910390f35b6104f460048036038101906104ef919061223a565b611012565b005b6008818051602081018201805184825260208301602085012081835280955050505050506000915090505481565b60007f80ac58cd000000000000000000000000000000000000000000000000000000007bffffffffffffffffffffffffffffffffffffffffffffffffffffffff1916827bffffffffffffffffffffffffffffffffffffffffffffffffffffffff191614806105ef57507f5b5e139f000000000000000000000000000000000000000000000000000000007bffffffffffffffffffffffffffffffffffffffffffffffffffffffff1916827bffffffffffffffffffffffffffffffffffffffffffffffffffffffff1916145b806105ff57506105fe82611095565b5b9050919050565b606060008054610615906124f1565b80601f0160208091040260200160405190810160405280929190818152602001828054610641906124f1565b801561068e5780601f106106635761010080835404028352916020019161068e565b820191906000526020600020905b81548152906001019060200180831161067157829003601f168201915b5050505050905090565b60006106a3826110ff565b6004600083815260200190815260200160002060009054906101000a900473ffffffffffffffffffffffffffffffffffffffff169050919050565b60006106e9826108ae565b90508073ffffffffffffffffffffffffffffffffffffffff168373ffffffffffffffffffffffffffffffffffffffff1603610759576040517f08c379a000000000000000000000000000000000000000000000000000000000815260040161075090612594565b60405180910390fd5b8073ffffffffffffffffffffffffffffffffffffffff1661077861114a565b73ffffffffffffffffffffffffffffffffffffffff1614806107a757506107a6816107a161114a565b610f7e565b5b6107e6576040517f08c379a00000000000000000000000000000000000000000000000000000000081526004016107dd90612626565b60405180910390fd5b6107f08383611152565b505050565b6000610801600761120b565b905090565b60006008826040516108189190612682565b9081526020016040518091039020549050919050565b61083f61083961114a565b82611219565b61087e576040517f08c379a00000000000000000000000000000000000000000000000000000000081526004016108759061270b565b60405180910390fd5b6108898383836112ae565b505050565b6108a983838360405180602001604052806000815250610c11565b505050565b6000806108ba836115a7565b9050600073ffffffffffffffffffffffffffffffffffffffff168173ffffffffffffffffffffffffffffffffffffffff160361092b576040517f08c379a000000000000000000000000000000000000000000000000000000000815260040161092290612777565b60405180910390fd5b80915050919050565b600a6020528060005260406000206000915090508054610953906124f1565b80601f016020809104026020016040519081016040528092919081815260200182805461097f906124f1565b80156109cc5780601f106109a1576101008083540402835291602001916109cc565b820191906000526020600020905b8154815290600101906020018083116109af57829003601f168201915b505050505081565b60008073ffffffffffffffffffffffffffffffffffffffff168273ffffffffffffffffffffffffffffffffffffffff1603610a44576040517f08c379a0000000000000000000000000000000000000000000000000000000008152600401610a3b90612809565b60405180910390fd5b600360008373ffffffffffffffffffffffffffffffffffffffff1673ffffffffffffffffffffffffffffffffffffffff168152602001908152602001600020549050919050565b610a936115e4565b610a9d6000611662565b565b6000600660009054906101000a900473ffffffffffffffffffffffffffffffffffffffff16905090565b60096020528060005260406000206000915090508054610ae8906124f1565b80601f0160208091040260200160405190810160405280929190818152602001828054610b14906124f1565b8015610b615780601f10610b3657610100808354040283529160200191610b61565b820191906000526020600020905b815481529060010190602001808311610b4457829003601f168201915b505050505081565b606060018054610b78906124f1565b80601f0160208091040260200160405190810160405280929190818152602001828054610ba4906124f1565b8015610bf15780601f10610bc657610100808354040283529160200191610bf1565b820191906000526020600020905b815481529060010190602001808311610bd457829003601f168201915b5050505050905090565b610c0d610c0661114a565b8383611728565b5050565b610c22610c1c61114a565b83611219565b610c61576040517f08c379a0000000000000000000000000000000000000000000000000000000008152600401610c589061270b565b60405180910390fd5b610c6d84848484611894565b50505050565b6060610c7e826118f0565b610cbd576040517f08c379a0000000000000000000000000000000000000000000000000000000008152600401610cb490612875565b60405180910390fd5b600a60008381526020019081526020016000208054610cdb906124f1565b80601f0160208091040260200160405190810160405280929190818152602001828054610d07906124f1565b8015610d545780601f10610d2957610100808354040283529160200191610d54565b820191906000526020600020905b815481529060010190602001808311610d3757829003601f168201915b50505050509050919050565b6060600960008381526020019081526020016000208054610d80906124f1565b80601f0160208091040260200160405190810160405280929190818152602001828054610dac906124f1565b8015610df95780601f10610dce57610100808354040283529160200191610df9565b820191906000526020600020905b815481529060010190602001808311610ddc57829003601f168201915b50505050509050919050565b600080600883604051610e189190612682565b90815260200160405180910390205414159050919050565b6000610e3a6115e4565b6000600884604051610e4c9190612682565b90815260200160405180910390205414610e9b576040517f08c379a0000000000000000000000000000000000000000000000000000000008152600401610e92906128e1565b60405180910390fd5b610ea56007611931565b6000610eb1600761120b565b9050610ebd8582611947565b80600885604051610ece9190612682565b90815260200160405180910390208190555083600960008381526020019081526020016000209081610f009190612aad565b5082600a60008381526020019081526020016000209081610f219190612aad565b50808573ffffffffffffffffffffffffffffffffffffffff167fa27076ba8c7eab72cb8020b9db57d90f231a7f2fb6fb9c2181b711b1559f71c08686604051610f6b929190612b7f565b60405180910390a3809150509392505050565b6000600560008473ffffffffffffffffffffffffffffffffffffffff1673ffffffffffffffffffffffffffffffffffffffff16815260200190815260200160002060008373ffffffffffffffffffffffffffffffffffffffff1673ffffffffffffffffffffffffffffffffffffffff16815260200190815260200160002060009054906101000a900460ff16905092915050565b61101a6115e4565b600073ffffffffffffffffffffffffffffffffffffffff168173ffffffffffffffffffffffffffffffffffffffff1603611089576040517f08c379a000000000000000000000000000000000000000000000000000000000815260040161108090612c28565b60405180910390fd5b61109281611662565b50565b60007f01ffc9a7000000000000000000000000000000000000000000000000000000007bffffffffffffffffffffffffffffffffffffffffffffffffffffffff1916827bffffffffffffffffffffffffffffffffffffffffffffffffffffffff1916149050919050565b611108816118f0565b611147576040517f08c379a000000000000000000000000000000000000000000000000000000000815260040161113e90612777565b60405180910390fd5b50565b600033905090565b816004600083815260200190815260200160002060006101000a81548173ffffffffffffffffffffffffffffffffffffffff021916908373ffffffffffffffffffffffffffffffffffffffff160217905550808273ffffffffffffffffffffffffffffffffffffffff166111c5836108ae565b73ffffffffffffffffffffffffffffffffffffffff167f8c5be1e5ebec7d5bd14f71427d1e84f3dd0314c0f7b2291e5b200ac8c7c3b92560405160405180910390a45050565b600081600001549050919050565b600080611225836108ae565b90508073ffffffffffffffffffffffffffffffffffffffff168473ffffffffffffffffffffffffffffffffffffffff16148061126757506112668185610f7e565b5b806112a557508373ffffffffffffffffffffffffffffffffffffffff1661128d84610698565b73ffffffffffffffffffffffffffffffffffffffff16145b91505092915050565b8273ffffffffffffffffffffffffffffffffffffffff166112ce826108ae565b73ffffffffffffffffffffffffffffffffffffffff1614611324576040517f08c379a000000000000000000000000000000000000000000000000000000000815260040161131b90612cba565b60405180910390fd5b600073ffffffffffffffffffffffffffffffffffffffff168273ffffffffffffffffffffffffffffffffffffffff1603611393576040517f08c379a000000000000000000000000000000000000000000000000000000000815260040161138a90612d4c565b60405180910390fd5b6113a08383836001611965565b8273ffffffffffffffffffffffffffffffffffffffff166113c0826108ae565b73ffffffffffffffffffffffffffffffffffffffff1614611416576040517f08c379a000000000000000000000000000000000000000000000000000000000815260040161140d90612cba565b60405180910390fd5b6004600082815260200190815260200160002060006101000a81549073ffffffffffffffffffffffffffffffffffffffff02191690556001600360008573ffffffffffffffffffffffffffffffffffffffff1673ffffffffffffffffffffffffffffffffffffffff168152602001908152602001600020600082825403925050819055506001600360008473ffffffffffffffffffffffffffffffffffffffff1673ffffffffffffffffffffffffffffffffffffffff16815260200190815260200160002060008282540192505081905550816002600083815260200190815260200160002060006101000a81548173ffffffffffffffffffffffffffffffffffffffff021916908373ffffffffffffffffffffffffffffffffffffffff160217905550808273ffffffffffffffffffffffffffffffffffffffff168473ffffffffffffffffffffffffffffffffffffffff167fddf252ad1be2c89b69c2b068fc378daa952ba7f163c4a11628f55a4df523b3ef60405160405180910390a46115a2838383600161196b565b505050565b60006002600083815260200190815260200160002060009054906101000a900473ffffffffffffffffffffffffffffffffffffffff169050919050565b6115ec61114a565b73ffffffffffffffffffffffffffffffffffffffff1661160a610a9f565b73ffffffffffffffffffffffffffffffffffffffff1614611660576040517f08c379a000000000000000000000000000000000000000000000000000000000815260040161165790612db8565b60405180910390fd5b565b6000600660009054906101000a900473ffffffffffffffffffffffffffffffffffffffff16905081600660006101000a81548173ffffffffffffffffffffffffffffffffffffffff021916908373ffffffffffffffffffffffffffffffffffffffff1602179055508173ffffffffffffffffffffffffffffffffffffffff168173ffffffffffffffffffffffffffffffffffffffff167f8be0079c531659141344cd1fd0a4f28419497f9722a3daafe3b4186f6b6457e060405160405180910390a35050565b8173ffffffffffffffffffffffffffffffffffffffff168373ffffffffffffffffffffffffffffffffffffffff1603611796576040517f08c379a000000000000000000000000000000000000000000000000000000000815260040161178d90612e24565b60405180910390fd5b80600560008573ffffffffffffffffffffffffffffffffffffffff1673ffffffffffffffffffffffffffffffffffffffff16815260200190815260200160002060008473ffffffffffffffffffffffffffffffffffffffff1673ffffffffffffffffffffffffffffffffffffffff16815260200190815260200160002060006101000a81548160ff0219169083151502179055508173ffffffffffffffffffffffffffffffffffffffff168373ffffffffffffffffffffffffffffffffffffffff167f17307eab39ab6107e8899845ad3d59bd9653f200f220920489ca2b5937696c3183604051611887919061200a565b60405180910390a3505050565b61189f8484846112ae565b6118ab84848484611971565b6118ea576040517f08c379a00000000000000000000000000000000000000000000000000000000081526004016118e190612eb6565b60405180910390fd5b50505050565b60008073ffffffffffffffffffffffffffffffffffffffff16611912836115a7565b73ffffffffffffffffffffffffffffffffffffffff1614159050919050565b6001816000016000828254019250508190555050565b611961828260405180602001604052806000815250611af8565b5050565b50505050565b50505050565b60006119928473ffffffffffffffffffffffffffffffffffffffff16611b53565b15611aeb578373ffffffffffffffffffffffffffffffffffffffff1663150b7a026119bb61114a565b8786866040518563ffffffff1660e01b81526004016119dd9493929190612f2b565b6020604051808303816000875af1925050508015611a1957506040513d601f19601f82011682018060405250810190611a169190612f8c565b60015b611a9b573d8060008114611a49576040519150601f19603f3d011682016040523d82523d6000602084013e611a4e565b606091505b506000815103611a93576040517f08c379a0000000000000000000000000000000000000000000000000000000008152600401611a8a90612eb6565b60405180910390fd5b805181602001fd5b63150b7a0260e01b7bffffffffffffffffffffffffffffffffffffffffffffffffffffffff1916817bffffffffffffffffffffffffffffffffffffffffffffffffffffffff191614915050611af0565b600190505b949350505050565b611b028383611b76565b611b0f6000848484611971565b611b4e576040517f08c379a0000000000000000000000000000000000000000000000000000000008152600401611b4590612eb6565b60405180910390fd5b505050565b6000808273ffffffffffffffffffffffffffffffffffffffff163b119050919050565b600073ffffffffffffffffffffffffffffffffffffffff168273ffffffffffffffffffffffffffffffffffffffff1603611be5576040517f08c379a0000000000000000000000000000000000000000000000000000000008152600401611bdc90613005565b60405180910390fd5b611bee816118f0565b15611c2e576040517f08c379a0000000000000000000000000000000000000000000000000000000008152600401611c2590613071565b60405180910390fd5b611c3c600083836001611965565b611c45816118f0565b15611c85576040517f08c379a0000000000000000000000000000000000000000000000000000000008152600401611c7c90613071565b60405180910390fd5b6001600360008473ffffffffffffffffffffffffffffffffffffffff1673ffffffffffffffffffffffffffffffffffffffff16815260200190815260200160002060008282540192505081905550816002600083815260200190815260200160002060006101000a81548173ffffffffffffffffffffffffffffffffffffffff021916908373ffffffffffffffffffffffffffffffffffffffff160217905550808273ffffffffffffffffffffffffffffffffffffffff16600073ffffffffffffffffffffffffffffffffffffffff167fddf252ad1be2c89b69c2b068fc378daa952ba7f163c4a11628f55a4df523b3ef60405160405180910390a4611d8f60008383600161196b565b5050565b6000604051905090565b600080fd5b600080fd5b600080fd5b600080fd5b6000601f19601f8301169050919050565b7f4e487b7100000000000000000000000000000000000000000000000000000000600052604160045260246000fd5b611dfa82611db1565b810181811067ffffffffffffffff82111715611e1957611e18611dc2565b5b80604052505050565b6000611e2c611d93565b9050611e388282611df1565b919050565b600067ffffffffffffffff821115611e5857611e57611dc2565b5b611e6182611db1565b9050602081019050919050565b82818337600083830152505050565b6000611e90611e8b84611e3d565b611e22565b905082815260208101848484011115611eac57611eab611dac565b5b611eb7848285611e6e565b509392505050565b600082601f830112611ed457611ed3611da7565b5b8135611ee4848260208601611e7d565b91505092915050565b600060208284031215611f0357611f02611d9d565b5b600082013567ffffffffffffffff811115611f2157611f20611da2565b5b611f2d84828501611ebf565b91505092915050565b6000819050919050565b611f4981611f36565b82525050565b6000602082019050611f646000830184611f40565b92915050565b60007fffffffff0000000000000000000000000000000000000000000000000000000082169050919050565b611f9f81611f6a565b8114611faa57600080fd5b50565b600081359050611fbc81611f96565b92915050565b600060208284031215611fd857611fd7611d9d565b5b6000611fe684828501611fad565b91505092915050565b60008115159050919050565b61200481611fef565b82525050565b600060208201905061201f6000830184611ffb565b92915050565b600081519050919050565b600082825260208201905092915050565b60005b8381101561205f578082015181840152602081019050612044565b60008484015250505050565b600061207682612025565b6120808185612030565b9350612090818560208601612041565b61209981611db1565b840191505092915050565b600060208201905081810360008301526120be818461206b565b905092915050565b6120cf81611f36565b81146120da57600080fd5b50565b6000813590506120ec816120c6565b92915050565b60006020828403121561210857612107611d9d565b5b6000612116848285016120dd565b91505092915050565b600073ffffffffffffffffffffffffffffffffffffffff82169050919050565b600061214a8261211f565b9050919050565b61215a8161213f565b82525050565b60006020820190506121756000830184612151565b92915050565b6121848161213f565b811461218f57600080fd5b50565b6000813590506121a18161217b565b92915050565b600080604083850312156121be576121bd611d9d565b5b60006121cc85828601612192565b92505060206121dd858286016120dd565b9150509250929050565b600080600060608486031215612200576121ff611d9d565b5b600061220e86828701612192565b935050602061221f86828701612192565b9250506040612230868287016120dd565b9150509250925092565b6000602082840312156122505761224f611d9d565b5b600061225e84828501612192565b91505092915050565b61227081611fef565b811461227b57600080fd5b50565b60008135905061228d81612267565b92915050565b600080604083850312156122aa576122a9611d9d565b5b60006122b885828601612192565b92505060206122c98582860161227e565b9150509250929050565b600067ffffffffffffffff8211156122ee576122ed611dc2565b5b6122f782611db1565b9050602081019050919050565b6000612317612312846122d3565b611e22565b90508281526020810184848401111561233357612332611dac565b5b61233e848285611e6e565b509392505050565b600082601f83011261235b5761235a611da7565b5b813561236b848260208601612304565b91505092915050565b6000806000806080858703121561238e5761238d611d9d565b5b600061239c87828801612192565b94505060206123ad87828801612192565b93505060406123be878288016120dd565b925050606085013567ffffffffffffffff8111156123df576123de611da2565b5b6123eb87828801612346565b91505092959194509250565b6000806000606084860312156124105761240f611d9d565b5b600061241e86828701612192565b935050602084013567ffffffffffffffff81111561243f5761243e611da2565b5b61244b86828701611ebf565b925050604084013567ffffffffffffffff81111561246c5761246b611da2565b5b61247886828701611ebf565b9150509250925092565b6000806040838503121561249957612498611d9d565b5b60006124a785828601612192565b92505060206124b885828601612192565b9150509250929050565b7f4e487b7100000000000000000000000000000000000000000000000000000000600052602260045260246000fd5b6000600282049050600182168061250957607f821691505b60208210810361251c5761251b6124c2565b5b50919050565b7f4552433732313a20617070726f76616c20746f2063757272656e74206f776e6560008201527f7200000000000000000000000000000000000000000000000000000000000000602082015250565b600061257e602183612030565b915061258982612522565b604082019050919050565b600060208201905081810360008301526125ad81612571565b9050919050565b7f4552433732313a20617070726f76652063616c6c6572206973206e6f7420746f60008201527f6b656e206f776e6572206f7220617070726f76656420666f7220616c6c000000602082015250565b6000612610603d83612030565b915061261b826125b4565b604082019050919050565b6000602082019050818103600083015261263f81612603565b9050919050565b600081905092915050565b600061265c82612025565b6126668185612646565b9350612676818560208601612041565b80840191505092915050565b600061268e8284612651565b915081905092915050565b7f4552433732313a2063616c6c6572206973206e6f7420746f6b656e206f776e6560008201527f72206f7220617070726f76656400000000000000000000000000000000000000602082015250565b60006126f5602d83612030565b915061270082612699565b604082019050919050565b60006020820190508181036000830152612724816126e8565b9050919050565b7f4552433732313a20696e76616c696420746f6b656e2049440000000000000000600082015250565b6000612761601883612030565b915061276c8261272b565b602082019050919050565b6000602082019050818103600083015261279081612754565b9050919050565b7f4552433732313a2061646472657373207a65726f206973206e6f74206120766160008201527f6c6964206f776e65720000000000000000000000000000000000000000000000602082015250565b60006127f3602983612030565b91506127fe82612797565b604082019050919050565b60006020820190508181036000830152612822816127e6565b9050919050565b7f546f6b656e20646f6573206e6f74206578697374000000000000000000000000600082015250565b600061285f601483612030565b915061286a82612829565b602082019050919050565b6000602082019050818103600083015261288e81612852565b9050919050565b7f4361726420616c7265616479206d696e74656400000000000000000000000000600082015250565b60006128cb601383612030565b91506128d682612895565b602082019050919050565b600060208201905081810360008301526128fa816128be565b9050919050565b60008190508160005260206000209050919050565b60006020601f8301049050919050565b600082821b905092915050565b6000600883026129637fffffffffffffffffffffffffffffffffffffffffffffffffffffffffffffffff82612926565b61296d8683612926565b95508019841693508086168417925050509392505050565b6000819050919050565b60006129aa6129a56129a084611f36565b612985565b611f36565b9050919050565b6000819050919050565b6129c48361298f565b6129d86129d0826129b1565b848454612933565b825550505050565b600090565b6129ed6129e0565b6129f88184846129bb565b505050565b5b81811015612a1c57612a116000826129e5565b6001810190506129fe565b5050565b601f821115612a6157612a3281612901565b612a3b84612916565b81016020851015612a4a578190505b612a5e612a5685612916565b8301826129fd565b50505b505050565b600082821c905092915050565b6000612a8460001984600802612a66565b1980831691505092915050565b6000612a9d8383612a73565b9150826002028217905092915050565b612ab682612025565b67ffffffffffffffff811115612acf57612ace611dc2565b5b612ad982546124f1565b612ae4828285612a20565b600060209050601f831160018114612b175760008415612b05578287015190505b612b0f8582612a91565b865550612b77565b601f198416612b2586612901565b60005b82811015612b4d57848901518255600182019150602085019450602081019050612b28565b86831015612b6a5784890151612b66601f891682612a73565b8355505b6001600288020188555050505b505050505050565b60006040820190508181036000830152612b99818561206b565b90508181036020830152612bad818461206b565b90509392505050565b7f4f776e61626c653a206e6577206f776e657220697320746865207a65726f206160008201527f6464726573730000000000000000000000000000000000000000000000000000602082015250565b6000612c12602683612030565b9150612c1d82612bb6565b604082019050919050565b60006020820190508181036000830152612c4181612c05565b9050919050565b7f4552433732313a207472616e736665722066726f6d20696e636f72726563742060008201527f6f776e6572000000000000000000000000000000000000000000000000000000602082015250565b6000612ca4602583612030565b9150612caf82612c48565b604082019050919050565b60006020820190508181036000830152612cd381612c97565b9050919050565b7f4552433732313a207472616e7366657220746f20746865207a65726f2061646460008201527f7265737300000000000000000000000000000000000000000000000000000000602082015250565b6000612d36602483612030565b9150612d4182612cda565b604082019050919050565b60006020820190508181036000830152612d6581612d29565b9050919050565b7f4f776e61626c653a2063616c6c6572206973206e6f7420746865206f776e6572600082015250565b6000612da2602083612030565b9150612dad82612d6c565b602082019050919050565b60006020820190508181036000830152612dd181612d95565b9050919050565b7f4552433732313a20617070726f766520746f2063616c6c657200000000000000600082015250565b6000612e0e601983612030565b9150612e1982612dd8565b602082019050919050565b60006020820190508181036000830152612e3d81612e01565b9050919050565b7f4552433732313a207472616e7366657220746f206e6f6e20455243373231526560008201527f63656976657220696d706c656d656e7465720000000000000000000000000000602082015250565b6000612ea0603283612030565b9150612eab82612e44565b604082019050919050565b60006020820190508181036000830152612ecf81612e93565b9050919050565b600081519050919050565b600082825260208201905092915050565b6000612efd82612ed6565b612f078185612ee1565b9350612f17818560208601612041565b612f2081611db1565b840191505092915050565b6000608082019050612f406000830187612151565b612f4d6020830186612151565b612f5a6040830185611f40565b8181036060830152612f6c8184612ef2565b905095945050505050565b600081519050612f8681611f96565b92915050565b600060208284031215612fa257612fa1611d9d565b5b6000612fb084828501612f77565b91505092915050565b7f4552433732313a206d696e7420746f20746865207a65726f2061646472657373600082015250565b6000612fef602083612030565b9150612ffa82612fb9565b602082019050919050565b6000602082019050818103600083015261301e81612fe2565b9050919050565b7f4552433732313a20746f6b656e20616c7265616479206d696e74656400000000600082015250565b600061305b601c83612030565b915061306682613025565b602082019050919050565b6000602082019050818103600083015261308a8161304e565b905091905056fea2646970667358221220bb5621b6ef2702b3b791dc8f2aeb6c051b43864446bea0fc78911c67b8a63b5064736f6c63430008140033",
  "linkReferences": {},
  "deployedLinkReferences": {}
}